{
  "abi": [
    {
      "type": "constructor",
      "inputs": [
        {
          "name": "_owner",
          "type": "address",
          "internalType": "address"
        },
        {
          "name": "_inbox",
          "type": "address",
          "internalType": "address"
        }
      ],
      "stateMutability": "nonpayable"
    },
    {
      "type": "function",
      "name": "fetchFee",
      "inputs": [
        {
          "name": "_sourceChainID",
          "type": "uint256",
          "internalType": "uint256"
        },
        {
          "name": "_hashes",
          "type": "bytes32[]",
          "internalType": "bytes32[]"
        },
        {
          "name": "_claimants",
          "type": "address[]",
          "internalType": "address[]"
        },
        {
          "name": "_prover",
          "type": "address",
          "internalType": "address"
        }
      ],
      "outputs": [
        {
          "name": "fee",
          "type": "uint256",
          "internalType": "uint256"
        }
      ],
      "stateMutability": "view"
    },
    {
      "type": "function",
      "name": "fulfillHyperInstant",
      "inputs": [
        {
          "name": "_sourceChainID",
          "type": "uint256",
          "internalType": "uint256"
        },
        {
          "name": "_targets",
          "type": "address[]",
          "internalType": "address[]"
        },
        {
          "name": "_data",
          "type": "bytes[]",
          "internalType": "bytes[]"
        },
        {
          "name": "_expiryTime",
          "type": "uint256",
          "internalType": "uint256"
        },
        {
          "name": "_nonce",
          "type": "bytes32",
          "internalType": "bytes32"
        },
        {
          "name": "_claimant",
          "type": "address",
          "internalType": "address"
        },
        {
          "name": "_expectedHash",
          "type": "bytes32",
          "internalType": "bytes32"
        },
        {
          "name": "_prover",
          "type": "address",
          "internalType": "address"
        }
      ],
      "outputs": [
        {
          "name": "",
          "type": "bytes[]",
          "internalType": "bytes[]"
        }
      ],
      "stateMutability": "payable"
    },
    {
      "type": "function",
      "name": "inbox",
      "inputs": [],
      "outputs": [
        {
          "name": "",
          "type": "address",
          "internalType": "contract IInbox"
        }
      ],
      "stateMutability": "view"
    },
    {
      "type": "function",
      "name": "isTransfer",
      "inputs": [
        {
          "name": "_data",
          "type": "bytes",
          "internalType": "bytes"
        }
      ],
      "outputs": [
        {
          "name": "",
          "type": "bool",
          "internalType": "bool"
        }
      ],
      "stateMutability": "pure"
    },
    {
      "type": "function",
      "name": "owner",
      "inputs": [],
      "outputs": [
        {
          "name": "",
          "type": "address",
          "internalType": "address"
        }
      ],
      "stateMutability": "view"
    },
    {
      "type": "function",
      "name": "renounceOwnership",
      "inputs": [],
      "outputs": [],
      "stateMutability": "nonpayable"
    },
    {
      "type": "function",
      "name": "transferOwnership",
      "inputs": [
        {
          "name": "newOwner",
          "type": "address",
          "internalType": "address"
        }
      ],
      "outputs": [],
      "stateMutability": "nonpayable"
    },
    {
      "type": "event",
      "name": "OwnershipTransferred",
      "inputs": [
        {
          "name": "previousOwner",
          "type": "address",
          "indexed": true,
          "internalType": "address"
        },
        {
          "name": "newOwner",
          "type": "address",
          "indexed": true,
          "internalType": "address"
        }
      ],
      "anonymous": false
    },
    {
      "type": "error",
      "name": "InvalidFunctionSelector",
      "inputs": []
    }
  ],
  "bytecode": {
    "object": "0x608060405234801561000f575f80fd5b5060405161143a38038061143a83398101604081905261002e916100d0565b61003733610066565b61004082610066565b600180546001600160a01b0319166001600160a01b039290921691909117905550610101565b5f80546001600160a01b038381166001600160a01b0319831681178455604051919092169283917f8be0079c531659141344cd1fd0a4f28419497f9722a3daafe3b4186f6b6457e09190a35050565b80516001600160a01b03811681146100cb575f80fd5b919050565b5f80604083850312156100e1575f80fd5b6100ea836100b5565b91506100f8602084016100b5565b90509250929050565b61132c8061010e5f395ff3fe60806040526004361061006e575f3560e01c8063af8a08d91161004c578063af8a08d914610104578063f02aed1d14610133578063f2fde38b14610153578063fb0e722b14610172575f80fd5b806352130b4014610072578063715018a6146100a45780638da5cb5b146100ba575b5f80fd5b34801561007d575f80fd5b5061009161008c366004610b23565b61019e565b6040519081526020015b60405180910390f35b3480156100af575f80fd5b506100b861026b565b005b3480156100c5575f80fd5b505f5473ffffffffffffffffffffffffffffffffffffffff165b60405173ffffffffffffffffffffffffffffffffffffffff909116815260200161009b565b34801561010f575f80fd5b5061012361011e366004610bf1565b61027e565b604051901515815260200161009b565b610146610141366004610ca5565b6102e7565b60405161009b9190610da7565b34801561015e575f80fd5b506100b861016d366004610e27565b6104a6565b34801561017d575f80fd5b506001546100df9073ffffffffffffffffffffffffffffffffffffffff1681565b5f8084846040516020016101b3929190610e49565b60408051808303601f19018152908290526001547fc1fc9d2e00000000000000000000000000000000000000000000000000000000835290925073ffffffffffffffffffffffffffffffffffffffff8581169291169063c1fc9d2e90610221908a9086908690600401610ed8565b602060405180830381865afa15801561023c573d5f803e3d5ffd5b505050506040513d601f19601f820116820180604052508101906102609190610f00565b979650505050505050565b610273610562565b61027c5f6105e2565b565b5f8061028d6004828587610f17565b81019061029a9190610f3e565b7fffffffff00000000000000000000000000000000000000000000000000000000167fa9059cbb000000000000000000000000000000000000000000000000000000001491505092915050565b60606102f1610562565b5f8a8a5f81811061030457610304610f7d565b90506020020160208101906103199190610e27565b905061034289895f81811061033057610330610f7d565b905060200281019061011e9190610faa565b610378576040517f42868c9b00000000000000000000000000000000000000000000000000000000815260040160405180910390fd5b5f89895f81811061038b5761038b610f7d565b905060200281019061039d9190610faa565b6103ab916004908290610f17565b8101906103b8919061100b565b6001549092506103e5915073ffffffffffffffffffffffffffffffffffffffff8481169133911684610656565b60015f9054906101000a900473ffffffffffffffffffffffffffffffffffffffff1673ffffffffffffffffffffffffffffffffffffffff1663f02aed1d348f8f8f8f8f8f8f8f8f8f6040518c63ffffffff1660e01b81526004016104529a99989796959493929190611100565b5f6040518083038185885af115801561046d573d5f803e3d5ffd5b50505050506040513d5f823e601f3d908101601f1916820160405261049591908101906111d9565b9d9c50505050505050505050505050565b6104ae610562565b73ffffffffffffffffffffffffffffffffffffffff8116610556576040517f08c379a000000000000000000000000000000000000000000000000000000000815260206004820152602660248201527f4f776e61626c653a206e6577206f776e657220697320746865207a65726f206160448201527f646472657373000000000000000000000000000000000000000000000000000060648201526084015b60405180910390fd5b61055f816105e2565b50565b5f5473ffffffffffffffffffffffffffffffffffffffff16331461027c576040517f08c379a000000000000000000000000000000000000000000000000000000000815260206004820181905260248201527f4f776e61626c653a2063616c6c6572206973206e6f7420746865206f776e6572604482015260640161054d565b5f805473ffffffffffffffffffffffffffffffffffffffff8381167fffffffffffffffffffffffff0000000000000000000000000000000000000000831681178455604051919092169283917f8be0079c531659141344cd1fd0a4f28419497f9722a3daafe3b4186f6b6457e09190a35050565b6040805173ffffffffffffffffffffffffffffffffffffffff85811660248301528416604482015260648082018490528251808303909101815260849091019091526020810180517bffffffffffffffffffffffffffffffffffffffffffffffffffffffff167f23b872dd000000000000000000000000000000000000000000000000000000001790526106eb9085906106f1565b50505050565b5f610752826040518060400160405280602081526020017f5361666545524332303a206c6f772d6c6576656c2063616c6c206661696c65648152508573ffffffffffffffffffffffffffffffffffffffff166108039092919063ffffffff16565b905080515f148061077257508080602001905181019061077291906112d3565b6107fe576040517f08c379a000000000000000000000000000000000000000000000000000000000815260206004820152602a60248201527f5361666545524332303a204552433230206f7065726174696f6e20646964206e60448201527f6f74207375636365656400000000000000000000000000000000000000000000606482015260840161054d565b505050565b606061081184845f85610819565b949350505050565b6060824710156108ab576040517f08c379a000000000000000000000000000000000000000000000000000000000815260206004820152602660248201527f416464726573733a20696e73756666696369656e742062616c616e636520666f60448201527f722063616c6c0000000000000000000000000000000000000000000000000000606482015260840161054d565b5f808673ffffffffffffffffffffffffffffffffffffffff1685876040516108d391906112f2565b5f6040518083038185875af1925050503d805f811461090d576040519150601f19603f3d011682016040523d82523d5f602084013e610912565b606091505b509150915061026087838387606083156109b35782515f036109ac5773ffffffffffffffffffffffffffffffffffffffff85163b6109ac576040517f08c379a000000000000000000000000000000000000000000000000000000000815260206004820152601d60248201527f416464726573733a2063616c6c20746f206e6f6e2d636f6e7472616374000000604482015260640161054d565b5081610811565b61081183838151156109c85781518083602001fd5b806040517f08c379a000000000000000000000000000000000000000000000000000000000815260040161054d919061130d565b7f4e487b71000000000000000000000000000000000000000000000000000000005f52604160045260245ffd5b604051601f8201601f1916810167ffffffffffffffff81118282101715610a5257610a526109fc565b604052919050565b5f67ffffffffffffffff821115610a7357610a736109fc565b5060051b60200190565b73ffffffffffffffffffffffffffffffffffffffff8116811461055f575f80fd5b8035610aa981610a7d565b919050565b5f82601f830112610abd575f80fd5b81356020610ad2610acd83610a5a565b610a29565b8083825260208201915060208460051b870101935086841115610af3575f80fd5b602086015b84811015610b18578035610b0b81610a7d565b8352918301918301610af8565b509695505050505050565b5f805f8060808587031215610b36575f80fd5b8435935060208086013567ffffffffffffffff80821115610b55575f80fd5b818801915088601f830112610b68575f80fd5b8135610b76610acd82610a5a565b81815260059190911b8301840190848101908b831115610b94575f80fd5b938501935b82851015610bb257843582529385019390850190610b99565b975050506040880135925080831115610bc9575f80fd5b5050610bd787828801610aae565b925050610be660608601610a9e565b905092959194509250565b5f8060208385031215610c02575f80fd5b823567ffffffffffffffff80821115610c19575f80fd5b818501915085601f830112610c2c575f80fd5b813581811115610c3a575f80fd5b866020828501011115610c4b575f80fd5b60209290920196919550909350505050565b5f8083601f840112610c6d575f80fd5b50813567ffffffffffffffff811115610c84575f80fd5b6020830191508360208260051b8501011115610c9e575f80fd5b9250929050565b5f805f805f805f805f806101008b8d031215610cbf575f80fd5b8a35995060208b013567ffffffffffffffff80821115610cdd575f80fd5b610ce98e838f01610c5d565b909b50995060408d0135915080821115610d01575f80fd5b50610d0e8d828e01610c5d565b90985096505060608b0135945060808b0135935060a08b0135610d3081610a7d565b925060c08b0135915060e08b0135610d4781610a7d565b809150509295989b9194979a5092959850565b5f5b83811015610d74578181015183820152602001610d5c565b50505f910152565b5f8151808452610d93816020860160208601610d5a565b601f01601f19169290920160200192915050565b5f60208083016020845280855180835260408601915060408160051b8701019250602087015f5b82811015610e1a577fffffffffffffffffffffffffffffffffffffffffffffffffffffffffffffffc0888603018452610e08858351610d7c565b94509285019290850190600101610dce565b5092979650505050505050565b5f60208284031215610e37575f80fd5b8135610e4281610a7d565b9392505050565b604080825283519082018190525f906020906060840190828701845b82811015610e8157815184529284019290840190600101610e65565b505050838103828501528451808252858301918301905f5b81811015610ecb57835173ffffffffffffffffffffffffffffffffffffffff1683529284019291840191600101610e99565b5090979650505050505050565b838152606060208201525f610ef06060830185610d7c565b9050826040830152949350505050565b5f60208284031215610f10575f80fd5b5051919050565b5f8085851115610f25575f80fd5b83861115610f31575f80fd5b5050820193919092039150565b5f60208284031215610f4e575f80fd5b81357fffffffff0000000000000000000000000000000000000000000000000000000081168114610e42575f80fd5b7f4e487b71000000000000000000000000000000000000000000000000000000005f52603260045260245ffd5b5f8083357fffffffffffffffffffffffffffffffffffffffffffffffffffffffffffffffe1843603018112610fdd575f80fd5b83018035915067ffffffffffffffff821115610ff7575f80fd5b602001915036819003821315610c9e575f80fd5b5f806040838503121561101c575f80fd5b823561102781610a7d565b946020939093013593505050565b81835281816020850137505f602082840101525f6020601f19601f840116840101905092915050565b5f838385526020808601955060208560051b830101845f5b87811015610ecb57601f1985840301895281357fffffffffffffffffffffffffffffffffffffffffffffffffffffffffffffffe18836030181126110b8575f80fd5b8701848101903567ffffffffffffffff8111156110d3575f80fd5b8036038213156110e1575f80fd5b6110ec858284611035565b9a86019a9450505090830190600101611076565b8a815261010060208083018290529082018a90525f906101208301908c90835b8d81101561115b57823561113381610a7d565b73ffffffffffffffffffffffffffffffffffffffff1684529281019291810191600101611120565b5050508281036040840152611171818a8c61105e565b9150508660608301528560808301526111a260a083018673ffffffffffffffffffffffffffffffffffffffff169052565b8360c08301526111ca60e083018473ffffffffffffffffffffffffffffffffffffffff169052565b9b9a5050505050505050505050565b5f60208083850312156111ea575f80fd5b825167ffffffffffffffff80821115611201575f80fd5b8185019150601f86601f840112611216575f80fd5b8251611224610acd82610a5a565b81815260059190911b84018501908581019089831115611242575f80fd5b8686015b838110156112c55780518681111561125c575f80fd5b8701603f81018c1361126c575f80fd5b88810151604088821115611282576112826109fc565b6112938b601f198a85011601610a29565b8281528e828486010111156112a6575f80fd5b6112b5838d8301848701610d5a565b8652505050918701918701611246565b509998505050505050505050565b5f602082840312156112e3575f80fd5b81518015158114610e42575f80fd5b5f8251611303818460208701610d5a565b9190910192915050565b602081525f610e426020830184610d7c56fea164736f6c6343000819000a",
    "linkReferences": {}
  },
  "methodIdentifiers": {
    "fetchFee(uint256,bytes32[],address[],address)": "52130b40",
    "fulfillHyperInstant(uint256,address[],bytes[],uint256,bytes32,address,bytes32,address)": "f02aed1d",
    "inbox()": "fb0e722b",
    "isTransfer(bytes)": "af8a08d9",
    "owner()": "8da5cb5b",
    "renounceOwnership()": "715018a6",
    "transferOwnership(address)": "f2fde38b"
  },
  "id": 154
}